:100000001DC037C036C035C034C06CC132C031C02D
:1000100030C02FC02EC02DC02CC02BC02AC0010262
:100020000000040001020408102002020202020281
:1000300000000000380000000000370011241FBE3F
:10004000CFE5D2E0DEBFCDBF10E0A0E6B0E0E0E853
:10005000FCE002C005900D92A636B107D9F720E06A
:10006000A6E6B0E001C01D92AC37B207E1F74ED36F
:1000700005C6C6CFCF92DF92EF92FF92CF93DF9368
:1000800061E08091640065D261E08091700061D28E
:1000900060E0809162005DD260E08091600059D2A2
:1000A00060E070E080917000E7D1CAE0D0E080911C
:1000B0006200C3D1BC01990F880B990B00D42DE0CD
:1000C00038E643E55BE3AFD49B01AC016091680087
:1000D0007091690080916A0090916B001ED36093CB
:1000E00068007093690080936A0090936B006AE0E7
:1000F00070E080E090E067D12197C9F620E030E021
:1001000040E251E4609168007091690080916A005A
:1001100090916B006AD36B017C01609368007093CF
:10012000690080936A0090936B0060936C007093F9
:100130006D0080936E0090936F002AE939E949E2DF
:1001400050E46DD41816BCF4C3E0D0E061E08091B7
:1001500064004ED26AEF70E080E090E034D160E05D
:100160008091640045D26AEF70E080E090E02BD18E
:10017000219761F76CC021E73DE34AE250E4C701F3
:10018000B6012FD387FF23C02DEC3CEC4CE150E4AB
:10019000C701B60144D41816D4F4C2E0D0E061E03F
:1001A0008091640025D26AEF70E080E090E00BD18E
:1001B00060E0809164001CD26AEF70E080E090E023
:1001C00002D1219709F443C0C1E0D0E0E8CF24EA8E
:1001D00030E74DE150E4C701B60103D387FF21C0EA
:1001E0002DEC3CEC4CE050E4C701B60118D41816D5
:1001F000C4F461E080916400FBD16AEF70E080E0BC
:1002000090E0E1D060E080916400F2D16AEF70E0AC
:1002100080E090E0DF91CF91FF90EF90DF90CF9062
:10022000D2C0C4E1D0E061E080916400E1D164E635
:1002300070E080E090E0C7D060E080916400D8D1A9
:1002400064E670E080E090E0BED0219761F7DF9136
:10025000CF91FF90EF90DF90CF900895AF92BF9233
:10026000CF92DF92EF92FF920F931F9383E8E5D036
:100270009093610080936000BC01990F880B990BEB
:100280001F921F921F922FEF2F93A12CB12C65016B
:10029000E12CF12C87012FEF33E040E050E0F3D167
:1002A00070936700609366000F900F900F900F900F
:1002B000809170001F910F91FF90EF90DF90CF9091
:1002C000BF90AF90D9C080B7807F80BF80B7806873
:1002D00080BF8CB580648CBD8FEF8DBD80B784608E
:1002E00080BF08951F920F920FB60F9211242F9383
:1002F0003F938F939F93AF93BF938091730090919F
:100300007400A0917500B09176003091720026E0E3
:10031000230F2D3730F029E8230F0396A11DB11DBF
:1003200003C00296A11DB11D20937200809373003B
:1003300090937400A0937500B0937600809177003D
:1003400090917800A0917900B0917A000196A11D5A
:10035000B11D8093770090937800A0937900B093BB
:100360007A00BF91AF919F918F913F912F910F9004
:100370000FBE0F901F9018953FB7F89480917700AB
:1003800090917800A0917900B0917A0022B708B6D8
:1003900001FE05C02F3F19F00196A11DB11D3FBF01
:1003A000BA2FA92F982F8827820F911DA11DB11D4B
:1003B000BC01CD0143E0660F771F881F991F4A9546
:1003C000D1F708950895CF92DF92EF92FF92CF93E5
:1003D000DF936B017C01D0DFEB01C114D104E10498
:1003E000F10479F0EFDFC8DF6C1B7D0B683E7340D2
:1003F000A0F381E0C81AD108E108F108C851DC4F28
:10040000F2CFDF91CF91FF90EF90DF90CF900895E2
:100410008AB582608ABD8AB581608ABD83B7887FCC
:10042000826083BF789489B7826089BF4CDF86B1D0
:100430008877836886B9379A08958F7090917B008A
:100440009295990F990F907C892B87B987B19091DC
:100450007B0092FB222720F930E094E0220F331F2B
:100460009A95E1F7282B27B9369A3699FECF84B1B1
:1004700025B190E0922B08951F93CF93DF93182F0F
:10048000EB0161E066D01C161D0614F060E004C0AC
:10049000CF3FD10534F061E0812FDF91CF911F91E3
:1004A000A7C0E12FF0E0E25EFF4FE491E13041F4BC
:1004B0008AB580688ABD8AB58F7B8ABDC9BD22C0D6
:1004C000E23041F48AB580628ABD8AB58F7E8ABDEA
:1004D000C8BD18C0E33041F480B7806280BF80B7E8
:1004E0008F7E80BFCEBD0EC0E43041F48CB58062FB
:1004F0008CBD8CB58F7E8CBDCBBD04C0C038D10502
:1005000054F6C4CFDF91CF911F910895813031F41B
:100510008AB58F778ABD8AB58F7B07C0823039F460
:100520008AB58F7D8ABD8AB58F7E8ABD0895833056
:1005300039F480B78F7D80BF80B78F7E80BF0895EC
:10054000843031F48CB58F7D8CBD8CB58F7E8CBDA5
:100550000895CF93DF9387FF11C08F7741F08130EB
:1005600041F0823041F0833041F08FEF07C085E0E9
:1005700005C082E003C084E001C083E090E0FC019C
:10058000EC5DFF4F2491FC01E65DFF4F84918823D1
:1005900061F190E0880F991FFC01EA5CFF4FC59163
:1005A000D491FC01E05DFF4FA591B491611109C0A8
:1005B0009FB7F8948881209582238883EC912E231D
:1005C0000BC0623061F49FB7F8943881822F809518
:1005D00083238883EC912E2B2C939FBF06C08FB76B
:1005E000F894E8812E2B28838FBFDF91CF91089557
:1005F0000F931F93CF93DF931F92CDB7DEB787FF83
:1006000011C08F7741F0813041F0823041F083306A
:1006100041F08FEF07C085E005C082E003C084E0B1
:1006200001C083E0282F30E0F901E25EFF4F8491A2
:10063000F901EC5DFF4F1491F901E65DFF4F049164
:100640000023D9F0882319F0698360DF6981E02FE6
:10065000F0E0EE0FFF1FE05DFF4FA591B4918FB763
:10066000611106C0F8949C91E12FE095E92303C045
:10067000F894EC91E12BEC938FBF0F90DF91CF9129
:100680001F910F9108954F925F926F927F92AF9258
:10069000BF92CF92DF92EF92FF920F931F93CF936F
:1006A000DF93CDB7DEB729013A01621B730B840BD0
:1006B000950B29893A894B895C892A193B094C0990
:1006C0005D0938D2B22FA32FF42FE52FA80197018F
:1006D00024193509460957096B2F7A2F8F2F9E2F22
:1006E0000DD2CA01B9016A0D7B1D8C1D9D1DDF91C4
:1006F000CF911F910F91FF90EF90DF90CF90BF901F
:10070000AF907F906F905F904F90089581B781BFB9
:100710007FDEB0DCA3DDFECF5058BB27AA270ED06A
:1007200044C135D130F03AD120F031F49F3F11F47B
:100730001EF42AC10EF4E095E7FB20C1E92F46D153
:1007400080F3BA17620773078407950718F071F4EE
:100750009EF55EC10EF4E0950B2EBA2FA02D0B0175
:10076000B90190010C01CA01A0011124FF27591BF6
:1007700099F0593F50F4503E68F11A16F040A22FFC
:10078000232F342F4427585FF3CF4695379527956D
:10079000A795F0405395C9F77EF41F16BA0B620B6C
:1007A000730B840BBAF09150A1F0FF0FBB1F661FB3
:1007B000771F881FC2F70EC0BA0F621F731F841FF6
:1007C00048F4879577956795B795F7959E3F08F01C
:1007D000B3CF9395880F08F09927EE0F97958795DB
:1007E0000895A8D008F481E008950CD0DEC0D6D0DA
:1007F00040F0CDD030F021F45F3F19F0BFC051116F
:1008000008C1C2C0E3D098F39923C9F35523B1F3CB
:10081000951B550BBB27AA2762177307840738F06F
:100820009F5F5F4F220F331F441FAA1FA9F333D0CE
:100830000E2E3AF0E0E830D091505040E695001C82
:10084000CAF729D0FE2F27D0660F771F881FBB1F3E
:10085000261737074807AB07B0E809F0BB0B802D18
:10086000BF01FF2793585F4F2AF09E3F510568F064
:1008700085C0CFC05F3FECF3983EDCF3869577955B
:100880006795B795F7959F5FC9F7880F911D969566
:10089000879597F90895E1E0660F771F881FBB1FC2
:1008A000621773078407BA0720F0621B730B840B6F
:1008B000BA0BEE1F88F7E0950895E89409C097FBFE
:1008C0003EF490958095709561957F4F8F4F9F4F27
:1008D0009923A9F0F92F96E9BB279395F69587956B
:1008E00077956795B795F111F8CFFAF4BB0F11F42E
:1008F00060FF1BC06F5F7F4F8F4F9F4F16C08823D5
:1009000011F096E911C0772321F09EE8872F762F0A
:1009100005C0662371F096E8862F70E060E02AF04B
:100920009A95660F771F881FDAF7880F9695879537
:1009300097F90895990F0008550FAA0BE0E8FEEF0C
:1009400016161706E807F907C0F012161306E40793
:10095000F50798F0621B730B840B950B39F40A268C
:1009600061F0232B242B252B21F408950A2609F46A
:10097000A140A6958FEF811D811D089597F99F676E
:1009800080E870E060E008959FEF80EC0895002417
:100990000A941616170618060906089500240A94E4
:1009A00012161306140605060895092E0394000C6A
:1009B00011F4882352F0BB0F40F4BF2B11F460FFF9
:1009C00004C06F5F7F4F8F4F9F4F089557FD905822
:1009D000440F551F59F05F3F71F04795880F97FB03
:1009E000991F61F09F3F79F08795089512161306BD
:1009F0001406551FF2CF4695F1DF08C016161706EC
:100A00001806991FF1CF8695710561050894089520
:100A1000E894BB2766277727CB0197F908958ADFEB
:100A200008F48FEF08950AD0C0CFB1DF28F0B6DF09
:100A300018F0952309F0A2CFA7CFEBCFC7DFA8F31B
:100A40009923D9F35523C9F3950F50E0551FAA27D1
:100A5000EE27FF27BB2700240894679520F4E20FB8
:100A6000F31FB41F0A1E220F331F441FAA1F6695CF
:100A7000A9F7779530F4F30FB41F0A1E121E08F47D
:100A80006395330F441FAA1F221F769599F7879508
:100A900020F4B40F0A1E121E631F440FAA1F221F48
:100AA000331F8695A9F7862F712D602D11249F572E
:100AB00050408AF0E1F088234AF0EE0FFF1FBB1F81
:100AC000661F771F881F91505040A9F79E3F510520
:100AD00070F054CF9ECF5F3FECF3983EDCF38695E9
:100AE00077956795B795F795E7959F5FC1F7FE2BCB
:100AF000880F911D9695879597F90895052E97FB78
:100B000016F400940FD057FD05D068D007FC02D032
:100B100046F408C050954095309521953F4F4F4F72
:100B20005F4F089590958095709561957F4F8F4F99
:100B30009F4F089568940013E894A0E0B0E0E2EAC3
:100B4000F5E01DC0EFEFE7F959016A015E23550F8B
:100B5000EE08FE2C87019B01AC019E23990F660BCA
:100B6000762FCB015DD0CDB7DEB7EAE024C02F925F
:100B70003F924F925F926F927F928F929F92AF922D
:100B8000BF92CF92DF92EF92FF920F931F93CF937A
:100B9000DF93CDB7DEB7CA1BDB0B0FB6F894DEBF11
:100BA0000FBECDBF09942A88398848885F846E8437
:100BB0007D848C849B84AA84B984C884DF80EE8081
:100BC000FD800C811B81AA81B981CE0FD11D0FB68A
:100BD000F894DEBF0FBECDBFED010895A1E21A2E3D
:100BE000AA1BBB1BFD010DC0AA1FBB1FEE1FFF1FD1
:100BF000A217B307E407F50720F0A21BB30BE40B21
:100C0000F50B661F771F881F991F1A9469F7609567
:100C10007095809590959B01AC01BD01CF01089521
:100C2000DF93CF939F92A0E49A2E0024D001E0019D
:100C3000F00116950795F794E794D794C794B79465
:100C4000A79448F41068A20FB31FC41FD51FE61F56
:100C5000F71F081E191E220F331F441F551F661F42
:100C6000771F881F991F9A9421F79D01AE01BF013C
:100C7000C00111249F90CF91DF910895F894FFCF88
:060C8000830082008100E8
:00000001FF
